:020000040800F2
:1000000070300020DD010008CD3D0008CF3D000824
:10001000D33D0008D73D0008DB3D0008000000008C
:100020000000000000000000000000004501000882
:10003000DF3D000800000000890100080D3D0008B8
:10004000F7010008F7010008F7010008F7010008B0
:10005000F7010008F7010008F7010008F7010008A0
:10006000F7010008F7010008F7010008F701000890
:10007000F7010008F7010008F7010008F701000880
:10008000F7010008F7010008F7010008F701000870
:10009000F7010008F7010008F7010008F701000860
:1000A000F7010008F7010008F7010008F701000850
:1000B000BB3F0008F7010008F7010008F70100083E
:1000C000F7010008F7010008F7010008F701000830
:1000D000F7010008F7010008F7010008F701000820
:1000E000F7010008F7010008F7010008F701000810
:1000F000F7010008F7010008F7010008F701000800
:10010000F7010008F7010008F7010008F7010008EF
:10011000F7010008F7010008F7010008F7010008DF
:10012000F7010008F7010008F7010008F7010008CF
:10013000DFF80CD004F01AFE00480047D73C000856
:1001400070300020224B19680868B0E8F00F80F387
:100150000988BFF36F8F4FF0000080F311884EF0D5
:100160000D0E70470000000006480068006880F32C
:10017000088862B661B6BFF34F8FBFF36F8F00DFA1
:1001800000BF00BF08ED00E0EFF30980BFF36F8F01
:100190000F4B1A6820E9F00F106008B54FF05000BF
:1001A00080F31188BFF34F8FBFF36F8F02F0F2FE21
:1001B0004FF0000080F31188BDE808401968086816
:1001C000B0E8F00F80F30988BFF36F8F704700BF6E
:1001D00044000020EFF30580704700000648804788
:1001E00006480047FEE7FEE7FEE7FEE7FEE7FEE71C
:1001F000FEE7FEE7FEE7FEE7DD020008310100084A
:100200000CB50020019000906B48006840F48030ED
:100210006949086000BF6848006800F40030009039
:100220000198401C0190009818B90198B0F5A06F92
:10023000F1D16148006810F4003F02D00120009025
:1002400001E0002000900098012842D15B4800683E
:1002500040F01000594908600846006820F003008B
:1002600008600846006840F0020008605248406894
:10027000514948600846406848600846406840F474
:10028000806048600846406820F47C10486008465A
:10029000406840F4E81048600846006840F080700C
:1002A000086000BF4448006810F0007FFAD0424860
:1002B000406820F00300404948600846406840F02C
:1002C0000200486000BF3C48406800F00C0008286D
:1002D000F9D10CBD10B5FFF793FF10BD10B536482E
:1002E000006840F00100344908600846406834491D
:1002F00008403149486008460068324908402E49A4
:1003000008600846006820F48020086008464068BD
:1003100020F4FE0048604FF41F008860FFF7DAFF0A
:100320004FF000602849086010BD10B50021002082
:100330000022214B5B6803F00C0121B1042906D097
:10034000082928D107E0214B214C236027E01F4BCF
:100350001F4C236023E0184B5B6803F47010164BAE
:100360005B6803F48032022303EB904022B9194BFF
:100370004343174C23600DE00F4B5B6813F4003FC1
:1003800004D0144B4343124C236003E00F4B434310
:100390000F4C236003E00D4B0D4C236000BF00BFEA
:1003A000054B5B68C3F303130B4CE15C084B1B6804
:1003B000CB40074C236010BD0010024000200240DB
:1003C0000000FFF8FFFFF6FE08ED00E000127A00E3
:1003D0000000002000093D000400002031490143D5
:1003E000314A1160704770B5002100230F22C47894
:1003F0000CB32D4C246804F4E064C4F5E064210AD5
:10040000C1F10403CA40447804FA03F1847814402B
:1004100021430901254C0678A155047804F01F05F5
:100420000124AC4005786D114FF0E02606EB850500
:10043000C5F8004109E0047804F01F050124AC4030
:100440001B4D0678761145F8264070BD194A0A40C2
:100450000243154B1B1F1A60704739B1124A121D17
:1004600012680243104B1B1D1A6006E00E4A121D53
:10047000126882430C4B1B1D1A607047042808D178
:100480004FF0E021096941F004014FF0E0221161D1
:1004900007E04FF0E021096921F004014FF0E0226C
:1004A000116170470000FA050CED00E000E400E087
:1004B00080E100E080FFFF1F10B50446CA48844277
:1004C00008D10121042000F027FB0021042000F0C6
:1004D00023FB46E0C548844208D10121082000F0F2
:1004E0001BFB0021082000F017FB3AE0C0488442C3
:1004F00008D10121102000F00FFB0021102000F096
:100500000BFB2EE0BB48844208D10121202000F0E3
:1005100003FB0021202000F0FFFA22E0B6488442CD
:1005200008D10121402000F0F7FA0021402000F01E
:10053000F3FA16E0B148844208D10121802000F08E
:10054000EBFA0021802000F0E7FA0AE0AC48844290
:1005500007D10121801500F0DFFA0021A01500F07D
:10056000DBFA10BD10B50121084600F0D5FA0021D4
:10057000012000F0D1FA10BD2DE9F041024600251E
:100580000026002000230024002791F803C00CF06F
:100590000F0591F803C01CF0100F03D091F802C0B2
:1005A0004CEA050591F800C0BCF1000F31D0146889
:1005B00000202BE04FF0010C0CFA00F3B1F800C062
:1005C0000CEA03069E4220D183004FF00F0C0CFA78
:1005D00003F7BC4305FA03FC4CEA040491F803C09A
:1005E000BCF1280F06D14FF0010C0CFA00FCC2F848
:1005F00014C00AE091F803C0BCF1480F05D14FF0D8
:10060000010C0CFA00FCC2F810C0401C0828D1D321
:100610001460B1F800C0BCF1FF0F34DD5468002055
:100620002EE000F1080C4FF0010808FA0CF3B1F8C5
:1006300000C00CEA03069E4221D183004FF00F0C4C
:100640000CFA03F7BC4305FA03FC4CEA040491F8E6
:1006500003C0BCF1280F05D100F1080C08FA0CF812
:10066000C2F8148091F803C0BCF1480F07D100F123
:10067000080C4FF0010808FA0CF8C2F81080401C72
:100680000828CED35460BDE8F0814FF6FF71018099
:10069000022181700421C1707047024600209368D6
:1006A0000B4201D0012000E000207047014688681D
:1006B00080B2704702460020D3680B4201D001206F
:1006C00000E0002070470146C86880B270470161B1
:1006D0007047416170470AB1016100E041617047B4
:1006E000C16070474FF480320A4382618161826148
:1006F00082698269704702460020424B18684FF6B3
:100700008073184040EA021008433E4B186070475F
:100710003D49C8617047F0B50A4600230024002116
:10072000002500F00046B6F1004F02D1354EF169C8
:1007300001E0344E7168C0F3034583B200F4401603
:10074000B6F5401F08D121F070612E4E766826F074
:1007500070662C4F7E6012E000F48016B6F5801FA4
:1007600006D1032606FA05F4A14341F0706106E0C4
:10077000460D360103FA06F6B14341F0706122B12D
:10078000460D360103FA06F6314300F00046B6F195
:10079000004F02D11B4EF16101E01A4E7160F0BDB5
:1007A00030B500228B071C0F0F2303FA04F2154B00
:1007B00008338C1053F824309343124C08348D10B6
:1007C00044F8253023468C1053F824308C07240F2E
:1007D00000FA04F423430B4C08348D1044F8253000
:1007E00030BD0A490860704700080140000C014014
:1007F000001001400014014000180140001C01409D
:10080000002001400000014000002042DC002042A6
:10081000DD48006840F00100DB4908600846406898
:10082000DA490840D849486008460068D849084075
:10083000D54908600846006820F480200860084612
:10084000406820F4FE0048604FF41F008860704745
:10085000CD49096821F48031CB4A116011460968FD
:1008600021F480211160B0F5803F03D0B0F5802FD6
:100870000ED106E0C449096841F48031C24A1160D2
:1008800007E0C149096841F4A021BF4A116000E0B6
:1008900000BF00BF704710B50146002200230020B2
:1008A0004A11012A02D1B84C236806E0022A02D17B
:1008B000B54C236A01E0B44C636A01F01F020124C5
:1008C00094401C4201D0012000E0002010BD38B54A
:1008D000002000900024002500BF3120FFF7DBFF3F
:1008E00005460098401C00900098B0F5A06F01D01C
:1008F000002DF2D03120FFF7CEFF08B1012400E037
:100900000024204638BD014600209F4A106820F090
:10091000F80040EAC100106070479E4908607047C7
:1009200002460020984B586820F47C1042EA0103EC
:100930001843954B586070479649086670470146C2
:100940000020914A506820F003000843506070472F
:100950008D48406800F00C007047014600208A4A2C
:10096000506820F0F00008435060704701460020B6
:10097000854A506820F4E0600843506070470146A3
:100980000020814A506820F4605040EAC100506065
:10099000704729B17C4A527A02437B4B5A7204E079
:1009A000794A527A8243784B5A7270477A49086082
:1009B000704701460020744A506820F440400843C4
:1009C000506070470021754A11706F4A82F82010FC
:1009D000012802D0042808D103E001216F4A1170D8
:1009E00004E005216D4A117000E000BF00BF7047B0
:1009F0006B49086070476449096A0143624A1162A1
:100A00007047674944390860704730B500210022BB
:100A1000002400235C4D6D6805F00C0121B1042910
:100A200005D0082923D105E05E4D056022E05D4D2B
:100A300005601FE0544D6D6805F47012524D6D68ED
:100A400005F48034022505EB92421CB9564D5543FE
:100A500005600BE04C4D6D6815F4003F03D0524D1E
:100A60005543056002E04F4D5543056002E04D4D92
:100A7000056000BF00BF444D6D6805F0F001090935
:100A80004A4D6B5C0568DD4045603F4D6D6805F47F
:100A9000E061090A454D6B5C4568DD4085603A4D73
:100AA0006D6805F46051C90A404D6B5C4568DD40D6
:100AB000C560354D6D6805F44041890B3C4D6B5C5C
:100AC000C568B5FBF3F5056130BD29B12E4A526901
:100AD00002432D4B5A6104E02B4A526982432A4B50
:100AE0005A61704729B1284A92690243264B9A619C
:100AF00004E0254A92698243234B9A61704729B1E9
:100B0000214AD2690243204BDA6104E01E4AD269CD
:100B100082431D4BDA61704729B11B4AD2680243F8
:100B2000194BDA6004E0184AD2688243164BDA6047
:100B3000704729B1144A12690243134B1A6104E049
:100B4000114A12698243104B1A61704714494039A7
:100B5000086070470F49C86470470B49C8717047F7
:100B60000948406A40F08070074948627047014672
:100B70000020054A92680A4201D0012000E00020CE
:100B80007047014988727047001002400000FFF86A
:100B9000FFFFF6FE00004242D80042422010024011
:100BA0008004424200127A0000093D001400002037
:100BB0002400002010B50446FE48844208D10121DB
:100BC000C014FFF7A9FF0021E014FFF7A5FFC4E060
:100BD000B4F1804F08D101210846FFF7AAFF002198
:100BE0000120FFF7A6FFB8E0F348844208D10121B5
:100BF0000220FFF79EFF00210220FFF79AFFACE0E2
:100C0000EE48844208D101210420FFF792FF002121
:100C10000420FFF78EFFA0E0E948844208D10121BB
:100C20000820FFF786FF00210820FFF782FF94E0ED
:100C3000E448844208D101211020FFF77AFF002107
:100C40001020FFF776FF88E0DF48844208D10121B9
:100C50002020FFF76EFF00212020FFF76AFF7CE0D5
:100C6000DA48844208D101214014FFF755FF0021E2
:100C70006014FFF751FF70E0D548844209D101218B
:100C8000C804FFF749FF00214FF40020FFF744FF9D
:100C900063E0D048844209D101210805FFF73CFFF9
:100CA00000214FF48010FFF737FF56E0CA48844216
:100CB00009D101214805FFF72FFF00214FF4001053
:100CC000FFF72AFF49E0C548844208D101214020AE
:100CD000FFF72FFF00214020FFF72BFF3DE0C0482A
:100CE000844208D101218020FFF723FF00218020CA
:100CF000FFF71FFF31E0BB48844208D10121801576
:100D0000FFF717FF0021A015FFF713FF25E0B648F6
:100D1000844209D101210804FFF7FEFE00214FF4AF
:100D20008030FFF7F9FE18E0B048844209D1012174
:100D30004804FFF7F1FE00214FF40030FFF7ECFE0E
:100D40000BE0AB48844208D101218804FFF7E4FEA0
:100D500000214FF48020FFF7DFFE10BD0022028843
:100D6000944B98420ED0994B98420BD0B0F1804FE3
:100D700008D0914B984205D0904B984202D0904BAE
:100D8000984204D14FF68F731A404B881A438D4B0B
:100D9000984207D08C4B984204D04FF6FF431A403C
:100DA000CB881A4302808B8883850B880385814B0F
:100DB00098420BD0854B984208D08B4B984205D077
:100DC0008A4B984202D08A4B984201D10B7A038613
:100DD00001238382704770B5002400220023058C14
:100DE0004FF6FE7635400584028C8388048B4FF6DF
:100DF0008F752C40B51E2C400D882C43751E2A4043
:100E00000D892A434D882A436A4DA8420BD06F4D65
:100E1000A84208D0744DA84205D0744DA84202D013
:100E2000734DA84213D14FF6F7752A404D892A43D6
:100E30004FF6FB752A408D882A434FF6FF652B40FD
:100E40004FF6FF552B408D892B43CD892B43838053
:100E50000483CD888586028470BD70B5002400228D
:100E60000023058C4FF6EF7635400584028C83888D
:100E7000048B48F6FF752C404FF6FF452C400D883B
:100E80004FF6FF7606EA05252C434FF6DF752A401C
:100E90000D8906EA05152A434D8806EA05152A43F9
:100EA000444DA84202D0494DA8421DD14FF67F754E
:100EB0002A404D894FF6FF7606EA05152A434FF67C
:100EC000BF752A408D8806EA05152A434FF6FF357F
:100ED0002B404FF2FF752B408D8906EA85052B4389
:100EE000CD8906EA85052B4383800483CD88058759
:100EF000028470BD70B5002400220023058C4FF6DB
:100F0000FF6635400584028C8388848B4FF68F758D
:100F10002C404FF6FC752C400D882C434FF6FF55A6
:100F20002A400D894FF6FF7606EA05252A434D88AB
:100F300006EA05252A431F4DA84202D0234DA842A8
:100F40001DD14FF2FF752A404D894FF6FF7606EA14
:100F500005252A434FF6FF352A408D8806EA0525E8
:100F60002A434EF6FF752B404DF6FF752B408D89B9
:100F700006EA05152B43CD8906EA05152B43838028
:100F80008483CD888587028470BD70B500220023DC
:100F90000024058C4EF6FF7635400584038C84884A
:100FA000828B48F6FF752A404FF6FF452A400D8890
:100FB00020E00000002C0140000400400008004038
:100FC000000C0040001000400014004000340140BC
:100FD000004C014000500140005401400018004006
:100FE000001C00400020004000400140004401403F
:100FF000004801404FF6FF7606EA05252A434DF6E4
:10100000FF752B400D8906EA05352B434D8806EA0E
:1010100005352B43FA4DA84202D0FA4DA84208D11B
:101020004BF6FF752C408D894FF6FF7606EA851545
:101030002C4384808283CD88A0F84050038470BD07
:10104000828B4FF2FF331A408283828B4FF6FF73FD
:1010500003EA01231A4382837047F0B50C46154614
:10106000002200210026078C4EF6FF7C07EA0C07C1
:101070000784828B018C4FF6FF7707EA043640F62F
:10108000FF473A404FF6FF7707EA05273A434FF606
:10109000FF7707EA03373A43D94FB8420ED0D94F0A
:1010A000B8420BD0B0F1804F08D0D74FB84205D02E
:1010B000D64FB84202D0D64FB84206D14DF6FF7790
:1010C000394046F48057394305E047F6FF57394029
:1010D00044F48057394382830184F0BD828B4FF6FC
:1010E000F3731A408283828B0A4382837047F0B580
:1010F0000C461546002200210026078C4FF6FF6C97
:1011000007EA0C070784828B018C4FF6FF7707EA0A
:1011100004264FF60C773A404FF6FF7707EA03179D
:101120002F433A43B64FB8420ED0B64FB8420BD019
:10113000B0F1804F08D0B44FB84205D0B34FB84299
:1011400002D0B34FB84206D14FF6FF57394046F4AC
:101150008077394305E04FF2FF57394044F48077F8
:10116000394382830184F0BD028B4FF2FF331A4072
:101170000283028B4FF6FF7303EA01231A430283B3
:101180007047F0B50C461546002200210026078C5A
:101190004FF6EF7C07EA0C070784028B018C4FF6B1
:1011A000FF7707EA041640F6FF473A404FF6FF770D
:1011B00007EA03373A434FF6FF7707EA05273A4332
:1011C0008F4FB8420ED08F4FB8420BD0B0F1804F46
:1011D00008D08D4FB84205D08C4FB84202D08C4F0A
:1011E000B84206D14FF6DF77394046F01007394351
:1011F00005E04FF65F77394044F01007394302832A
:101200000184F0BD028B4FF6F3731A400283028B08
:101210000A4302837047F0B50C46154600220021B0
:10122000068C4FF6FE773E400684028B018C4FF60B
:101230000C7632407E1C06EA03162E433243704E73
:10124000B0420ED06F4EB0420BD0B0F1804F08D0FC
:101250006D4EB04205D06D4EB04202D06C4EB042E1
:1012600006D14FF6FD76314044F00106314305E0EA
:101270004FF6F576314044F0010631430283018494
:10128000F0BD70B505460C465D4885420ED05D4800
:1012900085420BD0B5F1804F08D05B48854205D020
:1012A0005A48854202D05A48854200D100E000BF2A
:1012B000208850B92389A28861882846FFF7ABFFB0
:1012C000E1882846FFF79EFF25E0208804280AD100
:1012D0002389A28861882846FFF753FFE1882846C2
:1012E000FFF742FF17E0208808280AD12389A28847
:1012F00061882846FFF7FBFEE1882846FFF7EEFEEF
:1013000009E02389A28861882846FFF7A6FEE188C4
:101310002846FFF795FE70BD2DE9F04105460C46C5
:1013200000260127608808B9022600E00026A08870
:10133000012801D1022700E001272088A0B92389D4
:10134000A28861882846FFF766FFE1882846FFF7F4
:1013500059FF23893A4631462846FFF712FFE188B4
:101360002846FFF701FF13E02389A28861882846F9
:10137000FFF707FFE1882846FFF7F6FE23893A4684
:1013800031462846FFF747FFE1882846FFF73AFF36
:10139000BDE8F0810A884B881A438B881A43CB88B2
:1013A0001A430B891A434B891A438B891A43A0F8B5
:1013B000442070474FF6FF71818000210180C18079
:1013C0004180017270470021018041808180C1808D
:1013D000018141818181C18170470021018041806B
:1013E000012181800021C18001817047002101809D
:1013F00041808180C18001814181818170470000ED
:10140000002C01400034014000040040000800406E
:10141000000C004021B1028842F00102028004E089
:1014200002884FF6FE731A400280704731B1B0F85F
:10143000442042F40042A0F8442005E0B0F84420E3
:10144000C2F30E02A0F8442070471AB183890B43FF
:10145000838102E083898B43838170478182704757
:1014600041EA0203A0F8483070471AB183890B4360
:10147000838102E083898B438381704701894FF622
:10148000F8721140018170470A46002101894FF628
:101490008F73194011430181704730B504460D46E2
:1014A00029462046FFF7F0FF208940F00700208101
:1014B00030BD2DE9F04104460D4616461F46602D0D
:1014C00006D13B46012231462046FFF75AFE05E091
:1014D0003B46012231462046FFF79DFE2946204625
:1014E000FFF7D2FF208940F007002081BDE8F0819E
:1014F00030B50C4600210189C9B24FF6FF7505EAE7
:101500000325154325432943018130BD2DE9F041D1
:1015100005460E4617469846002443463A4631464D
:101520002846FFF7E5FF2C894FF6F870044044F099
:1015300007044FF68F70044044F070042C81BDE81E
:10154000F081F0B504460D4616461F463B4632462E
:1015500029462046FFF7CCFF208940F480402081B7
:10156000F0BD0185828270470A46002101884FF64E
:101570008F731940114301807047F0B50C46154632
:101580001E460021002200230189028B038C4FF6A6
:10159000F877394021434FF6FC473A4040F20117B3
:1015A0003A434FF6DD773B404FF6FF7707EA0617E1
:1015B0002F433B43018102830384F0BD0A4600218F
:1015C000018B4FF68F7319401143018370470A4610
:1015D0000021018B48F6FF7319404FF6FF7303EAB1
:1015E00002231943018370470A460021818B4FF67D
:1015F0008F7319401143818370470A460021818B04
:1016000048F6FF7319404FF6FF7303EA02231943AC
:101610008183704721B1028842F08002028004E099
:1016200002884FF67F731A400280704721B182888A
:1016300042F00402828004E082884FF6FB731A4075
:101640008280704721B1828842F00802828004E0E3
:1016500082884FF6F7731A408280704721B18288E2
:1016600042F00102828004E082884FF6FE731A4045
:10167000828070470A460021018B4FF6F7731940AC
:101680001143018370470A460021018B4FF2FF731B
:1016900019404FF6FF7303EA022319430183704791
:1016A0000A460021818B4FF6F7731940114381835D
:1016B00070470A460021818B4FF2FF7319404FF6A5
:1016C000FF7303EA02231943818370470A4600210E
:1016D000018B4FF6FB7319401143018370470A4693
:1016E0000021018B4FF6FF3319404FF6FF7303EAD9
:1016F00002231943018370470A460021818B4FF66C
:10170000FB7319401143818370470A460021818B86
:101710004FF6FF3319404FF6FF7303EA02231943D4
:10172000818370470A460021018B4FF67F73194071
:101730001143018370470A460021018BC1F30E015A
:101740004FF6FF7303EA02231943018370470A46E9
:101750000021818B4FF67F731940114381837047BD
:101760000A460021818BC1F30E014FF6FF7303EA95
:1017700002231943818370470A460021018C4FF6EA
:10178000FD7319401143018470470A460021018C02
:101790004FF6F77319401143018470470A46002140
:1017A000018C4FF6DF7319404FF6FF7303EA021303
:1017B0001943018470470A460021018C4FF67F735C
:1017C00019404FF6FF7303EA02131943018470476F
:1017D0000A460021018C4FF6FF5319404FF6FF7364
:1017E00003EA02231943018470470A460021018C51
:1017F0004FF2FF7319404FF6FF7303EA02231943B8
:10180000018470470A460021018C4DF6FF73194090
:101810004FF6FF7303EA023319430184704730B572
:10182000002301248C40A3B2048C9C430484048CC8
:1018300002FA01F5ADB22C43048430BD30B500236B
:1018400004248C40A3B2048C9C430484048C02FACC
:1018500001F5ADB22C43048430BD70B503460020C1
:1018600000241846183001258D40ACB21D8CA543CC
:101870001D8409B1082909D100EB6100056825F034
:10188000700505600568154305600EE00D1FC5F382
:101890004E052844056825F4E045056005684FF6C7
:1018A000FF7606EA02263543056070BD21B1028845
:1018B00042F00202028004E002884FF6FD731A40F3
:1018C0000280704721B1028842F00402028004E0E5
:1018D00002884FF6FB731A400280704721B182885C
:1018E00042F08002828004E082884FF67F731A40C3
:1018F0008280704702884FF6F7731A400280028890
:101900000A430280704782884FF68F731A408280A4
:1019100082880A438280704702894FF6F8731A4022
:10192000028102890A430281704702894FF67F7360
:101930001A40028102890A430281704781847047FC
:10194000818570478186704701877047818770471E
:10195000A0F84010704702884FF6FF431A400280FB
:1019600002880A43028070470146888E704701460C
:10197000088F70470146888F70470146B1F84000D4
:1019800070470146888C70470146088D70470246B3
:101990000020138A0B4201D0012000E00020704794
:1019A000CA430282704730B502460020002300245B
:1019B000158A05EA0103958905EA010413B10CB102
:1019C000012000E0002030BDCA43028270470000C1
:1019D00000BF502080F31188BFF34F8FBFF36F8F8C
:1019E00000BF00BFFEE7001F4FF080730360001FC1
:1019F00021F001030360001F2E4B036014380260C6
:101A0000203870472C4800684FF47A71B0FBF1F031
:101A1000401E4FF0E021486107200861704710B573
:101A20002648006840F470002449086008460068B1
:101A300040F070400860FFF7E5FF00202049086093
:101A4000FEF792FB002010BD704700BF502080F3CE
:101A50001188BFF34F8FBFF36F8F00BF1848006826
:101A6000401C17490860704715480068401E14491B
:101A700008600846006820B9002080F3118800BF84
:101A800000BF704710B500BF502080F31188BFF32E
:101A90004F8FBFF36F8F00BF00F08BFF20B14FF06F
:101AA000805006491C39086000BF002080F311886F
:101AB00000BF10BDD11900080000002020ED00E09B
:101AC0002800002010B50146714800E00068036856
:101AD0008B42FBD30246436813448B4204D14368D4
:101AE0004C682344436001460A464B68134404682B
:101AF000A34211D1674C03682468A34208D04B6805
:101B00000468646823444B6003681B680B6005E04D
:101B1000604B1B680B6001E003680B60884200D0DB
:101B2000016010BD30B54FF420535B4810F0070F33
:101B300005D0C01D20F00700574C041B1B1B02469C
:101B4000534C22600024524D6C60D018083820F0AD
:101B50000700504C206000244E4D2D686C604D4DA8
:101B60002D682C601146441A4C604A4C24680C6065
:101B70004A4D4C682C604A4D4C682C604FF0004434
:101B8000484D2C6030BD2DE9F04105464FF000086E
:101B900001F047F83F48006808B9FFF7C3FF414824
:101BA0000068054247D145B1083515F0070F04D04C
:101BB00005F00700C0F108000544002D3BD038486F
:101BC0000068854237D8324E3046046801E0264628
:101BD00024686068A84202D220680028F7D12D4806
:101BE0000068844227D0306800F10808206830601F
:101BF0006068401B102807D967196068401B78602F
:101C000065603846FFF75EFF254960680968081A75
:101C1000234908600846006820490968884203D2C1
:101C20001F4800681D4908601E496068096808432C
:101C300060600020206000F034FF4046BDE8F08185
:101C400070B506463546D6B1083D2C461549606844
:101C50000968084213D0206888B912496068096889
:101C60008843606000F0DDFF0D4960680968084442
:101C70000B4908602046FFF725FF00F012FF70BDFA
:101C800007480068704705480068704770470000C3
:101C90003C0000202C000020C00000203400002068
:101CA000300000203800002000F1080141604FF6AC
:101CB000FF71018100F10801C16001610021016033
:101CC000704700210161704742684A6093688B60E9
:101CD000936859609160086103685B1C03607047FA
:101CE00010B502460B88A3F57F44FF3C01D1106973
:101CF00007E002F1080000E04068446824889C4244
:101D0000FADD44684C604C68A160886041600A61FB
:101D10001468641C146010BD01460A69D1E90130E1
:101D20009860D1E9010358605068884201D1886801
:101D30005060002008611068401E106010687047F5
:101D400070B505460E462C46FFF77FFED4E90F120C
:101D5000206801FB020060600020A0632068A06092
:101D6000E06B401E226C216800FB0210E060FF2047
:101D700084F8440084F845009EB9206908B9012020
:101D800000E00020A8B904F1100001F05DF980B175
:101D90004FF08050FB490860BFF34F8FBFF36F8F48
:101DA00007E004F11000FFF77FFF04F12400FFF7C4
:101DB0007BFFFFF759FE012070BD2DE9F04106467B
:101DC0000D4617469846069C0DB9246000E0276032
:101DD000E663256401212046FFF7B2FF84F85080B6
:101DE0000020A064BDE8F0812DE9F84307460D46C8
:101DF00090460DB9002601E007FB05F606F15400F8
:101E0000FFF7C1FE044644B104F1540943464A4673
:101E1000294638460094FFF7D0FF2046BDE8F883F6
:101E20002DE9F04104460F4615464FF00008A66B19
:101E3000206C40B9206860BB606801F005FA8046FC
:101E40000020606025E07DB93946226CA06802F070
:101E500043FC216CA0680844A060D4E901108842CA
:101E600017D32068A06014E03946226CE06802F0C5
:101E700033FC216CE068401AE0602168E068884229
:101E800003D2216C6068401AE060022D01D106B1D6
:101E9000761E701CA0634046BDE8F0812DE9F34139
:101EA0000D460098846C0027A06BE16B88421BD222
:101EB00094F945602A4669462046FFF7B1FF074678
:101EC000701C0CD1606A08B9012000E0002050B9F4
:101ED00004F1240001F0B8F828B1012703E0701CD8
:101EE00040B284F8450000BF3846BDE8FC8170B5BB
:101EF0000446FFF7AAFD94F945501AE0A06C38B1EA
:101F000000212046FFF7CAFF88B101F02DF90EE04D
:101F1000606A08B9012000E0002038B904F124000B
:101F200001F092F818B101F01FF900E003E0681E1B
:101F300045B2002DE2DC00BFFF2084F84500FFF72A
:101F400093FDFFF782FD94F9445010E0206908B931
:101F5000012000E0002048B904F1100001F074F8FD
:101F600008B101F001F9681E45B200E001E0002D62
:101F7000ECDC00BFFF2084F84400FFF775FD70BD66
:101F800070B50546FFF761FDA86BE96B884201D18A
:101F9000012400E00024FFF767FD204670BD2DE915
:101FA000FF4383B0074688461D464FF000093C4674
:101FB00000BFFFF74AFDA06BE16B884201D3022D01
:101FC00038D12A4641462046FFF72AFF0646A06C34
:101FD00068B129462046FFF761FF28B34FF08050D3
:101FE00068490860BFF34F8FBFF36F8F1CE0606AD2
:101FF00008B9012000E0002068B904F1240001F0D4
:1020000023F888B14FF080505E490860BFF34F8FCE
:10201000BFF36F8F08E03EB14FF080505949086020
:10202000BFF34F8FBFF36F8FFFF71EFD012007B087
:10203000BDE8F083BDF8140018B9FFF715FD0020C6
:10204000F5E7B9F1000F04D101A801F060F84FF0F5
:102050000109FFF709FD00F0E4FDFFF7F6FC94F934
:102060004400401C01D184F8440094F94500401C10
:1020700001D184F84500FFF7F7FC05A901A801F09C
:102080004DF8F8B92046FFF77BFFA8B1BDF8141052
:1020900004F1100000F0A4FF2046FFF728FF00F035
:1020A00000FD002885D14FF0805036490860BFF30D
:1020B0004F8FBFF36F8F7CE72046FFF718FF00F0CC
:1020C000F0FC76E72046FFF712FF00F0EAFC002064
:1020D000ADE710B504464CB1002060602060E060C0
:1020E00000231A4619462046FFF759FF10BD2DE977
:1020F000F041044601260027224600210120FFF777
:1021000073FE05462846FFF7E4FF2846BDE8F08148
:1021100070B50646344601F036F8616888420CD145
:10212000E068401EE060E06828B900231A461946BE
:102130002046FFF734FF012500E00025284670BD4A
:1021400070B50546FFF781FCA86B08B9012400E0D3
:102150000024FFF789FC204670BD70B504460D468B
:10216000206C70B1216CE0680844E0606168E06850
:10217000884201D32068E0602846226CE16802F0C2
:10218000ABFA70BD04ED00E02DE9FF4782B00546D3
:1021900089461E464FF0000A2C4600BFFFF755FC4B
:1021A000D4F83880B8F1000F3BD0E76849462046A4
:1021B000FFF7D3FFDEB9A8F10100A063206810B9D2
:1021C00001F01BF96060206908B9012000E00020DF
:1021D00008BB04F1100000F037FFE0B14FF0805071
:1021E000F9490860BFF34F8FBFF36F8F13E0E760CB
:1021F000606A08B9012000E0002060B904F1240001
:1022000000F022FF38B14FF08050EF490860BFF373
:102210004F8FBFF36F8FFFF727FC012006B0BDE89B
:10222000F087BDF8100018B9FFF71EFC0020F5E795
:10223000BAF1000F04D1684600F069FF4FF0010ABF
:10224000FFF712FC00F0EDFCFFF7FFFB94F94400F0
:10225000401C01D184F8440094F94500401C01D190
:1022600084F84500FFF700FC04A9684600F056FF1B
:1022700048BB2046FFF764FFF8B1206830B9FFF78C
:10228000E4FB606800F08EFFFFF7EEFBBDF8101076
:1022900004F1240000F0A4FE2046FFF728FE00F021
:1022A00000FC00287FF47AAF4FF08050C6490860E8
:1022B000BFF34F8FBFF36F8F70E72046FFF717FE16
:1022C00000F0EFFB6AE72046FFF711FE00F0E9FBA4
:1022D0002046FFF735FF0028EED000209EE72DE9CD
:1022E000F04106460F46344600F04DFF61688842D3
:1022F00004D1E068401CE06001250AE000233A4672
:1023000019462046FFF740FF054615B1E068401C1E
:10231000E0602846BDE8F08170B506460D46022211
:1023200000213046FFF760FD044604B1A563204656
:1023300070BD2DE9F05F06468A4615461F463446B5
:1023400000BF5021EFF3118081F31188BFF34F8F4D
:10235000BFF36F8F00BF8146A06BE16B884201D352
:10236000022F2BD194F945B03A4651462046FFF74B
:1023700057FD1BF1010019D1A06C40B13946204630
:10238000FFF78CFDB8B1B5B10120286013E0606A99
:1023900008B9012000E0002068B904F1240000F031
:1023A00053FE40B13DB10120286004E00BF1010073
:1023B00040B284F845004FF0010801E04FF00008FA
:1023C00000BF89F3118800BF4046BDE8F09F2DE9AA
:1023D000F04706460D46344600BF5021EFF311800A
:1023E00081F31188BFF34F8FBFF36F8F00BF80461B
:1023F000D4F83890E06B484528D994F945A009F104
:102400000100A0631AF1010019D1A06C40B10021B4
:102410002046FFF743FDB8B1B5B10120286013E0B5
:10242000606A08B9012000E0002068B904F12400C6
:1024300000F00AFE40B13DB10120286004E00AF13D
:10244000010040B284F84500012700E0002700BFEA
:1024500088F3118800BF3846BDE8F0872DE9F05FAA
:1024600005468A4616462C4600BF5021EFF31180E0
:1024700081F31188BFF34F8FBFF36F8F00BF80468A
:10248000D4F83890B9F1000F21D094F944B05146F6
:102490002046FFF762FEA9F10100A0631BF10100D5
:1024A0000ED1206908B9012000E0002068B904F1CC
:1024B000100000F0C9FD40B13EB10120306004E0E1
:1024C0000BF1010040B284F84400012700E000272E
:1024D00000BF88F3118800BF3846BDE8F09F2DE9A2
:1024E000F047054689462C4600BF5021EFF3118086
:1024F00081F31188BFF34F8FBFF36F8F00BF074683
:10250000A06B48B1D4F80C8049462046FFF725FE61
:10251000C4F80C80012600E0002600BF87F3118874
:1025200000BF3046BDE8F08770B50446FFF78DFA6E
:10253000A56BFFF799FA284670BD70B5044625468D
:10254000FFF783FAD5E90E10461AFFF78DFA3046E9
:1025500070BD0146886B7047014600200EE01B4AA3
:1025600002EBC00252688A4207D10022174B43F89F
:10257000302003EBC0035A6002E0401C1428EED365
:1025800000BF704770B5044625462846FFF7E4FFB4
:102590002846FFF755FB70BD0146C86C7047C16403
:1025A0007047014691F85000704701468A6B0AB99E
:1025B000012000E00020704701468A6BCB6B9A42F5
:1025C00006D1012005E0000004ED00E0C028002055
:1025D00000207047024600200BE0494B53F8303092
:1025E00033B9474B43F8301003EBC0035A6002E0A5
:1025F000401C1428F1D300BF704702460020002180
:102600000AE03F4B03EBC1035B68934203D13C4BB1
:1026100053F8310002E0491C1429F2D300BF70477F
:102620002DE9F04105460E4617462C46FFF70DFAF8
:1026300094F94400401C01D184F8440094F9450009
:10264000401C01D184F84500FFF70EFAA06B28B9B1
:102650003A46314604F1240000F0E4FC2046FFF73E
:1026600046FCBDE8F08170B50446002204212046F6
:10267000FFF7BAFB0546284670BD70B504460E4606
:10268000FFF7E3F9A06C08B1002505E0A06B08B1E5
:10269000002501E0A6640125FFF7E6F9284670BD94
:1026A0002DE9F04105460F462E46B06CB84201D0E8
:1026B00000240AE0B06B08B1002406E0FFF7C5F97A
:1026C0000020B064FFF7D0F901242046BDE8F08176
:1026D00038B505460C460020009000232246694686
:1026E0002846FFF751FD009838BD38B50446002054
:1026F0000090002269462046FFF7B0FE009838BDE2
:10270000C028002010B5002407E004EB8401FE4A35
:1027100002EB8100FFF7C8FA641C202CF5D3FB48BC
:10272000FFF7C2FAFA48FFF7BFFAFA48FFF7BCFA18
:10273000F948FFF7B9FAF548F8490860F448F8494C
:10274000086010BD10B50446FFF77FF9F548006832
:10275000401CF4490860F448006840B9F24804603D
:102760000846006801280DD1FFF7CCFF0AE0EF48CA
:10277000006838B9EC480068C06AE16A884201D84C
:10278000E9480460EA480068401CE94908600846D6
:102790000068606494F82C1001208840E5490968BD
:1027A0000843E4490860E16A01EB8101D64A02EB83
:1027B0008100211DFFF788FAFFF756F9DB48006812
:1027C00068B1D9480068C06AE16A884207D24FF010
:1027D0008050D9490860BFF34F8FBFF36F8F10BD92
:1027E0002DE9F05F81460F4690469A460A9E0C9C62
:1027F0004FEA8801A522206B01F080FFA8F10100BB
:10280000216B01EB800B2BF0070B002507E0795DB6
:1028100004F134004155785D00B902E06D1C102DC3
:10282000F5D300BF002143200155202E00D31F26E1
:10283000E662E66400202065201DFFF742FA04F1FD
:102840001800FFF73EFA2461C6F12000208364627D
:102850000020606584F85800524649465846FFF704
:10286000C2F820600B9808B10B980460BDE8F09F97
:102870002DE9FF4F85B0804689461746DDE912AB4A
:10288000B800FFF780F9064656B15C20FFF77BF9E8
:1028900004460CB1266304E03046FFF7D1F900E0AE
:1028A00000247CB10020CDE900ABCDE902403A46DE
:1028B00049464046089BFFF793FF2046FFF742FF3B
:1028C000012501E04FF0FF35284609B0BDE8F08F43
:1028D00092490968096809B9012100E0002121B184
:1028E0004FF6FF71954A118006E08C490968C96866
:1028F000C8688188914A1180704710B50446206BE2
:10290000FFF79EF92046FFF79BF910BD70B505460D
:10291000FFF79BF815B98448006800E02846044694
:10292000201DFFF7F9F978B9E06A00EB80007649DD
:1029300051F8200040B994F82C10012088407D49BE
:10294000096881437B480160A06A18B104F118004E
:10295000FFF7E2F976480068401C75490860724844
:102960000068844209D1211D6B48FFF7ADF9744816
:102970000068401C7249086009E06A480068401E0F
:10298000684908602046FFF7B8FFFFF7A1FFFFF78F
:102990006BF86648006858B163480068844207D104
:1029A0004FF0805064490860BFF34F8FBFF36F8FC3
:1029B00070BD2DE9F041002762480068002864D10D
:1029C00061480088401C85B25F4805808DB9534836
:1029D000D0F8008052480068504908605048C0F85C
:1029E00000805A480068401C58490860FFF770FF93
:1029F00000BF5248008885423BDB00BF4748006863
:102A0000006808B9012000E0002020B14FF6FF70F7
:102A10004A4908802CE041480068C068C468A6881C
:102A2000B54202DA4548068022E0201DFFF774F91E
:102A3000A06A18B104F11800FFF76EF994F82C1091
:102A4000012088403B49096808433A490860E16A27
:102A500001EB81012C4A02EB8100211DFFF734F9C3
:102A60003149E06A0968C96A8842C7D30127C5E7C6
:102A700000BF2D480068C06A00EB8000224951F871
:102A80002000012800D9012704E031480068401CDB
:102A90002F4908602F48006800B101273846BDE87B
:102AA000F08170B500240026FEF7CFFF25480068AE
:102AB000401E2449086008460068002878D119485B
:102AC0000068002874D04DE01248C068C46804F162
:102AD0001800FFF721F9201DFFF71EF994F82C10BC
:102AE0000120884013490968084312490860E16AD7
:102AF00001EB8101044A02EB8100211DFFF7E4F89C
:102B00000949E06A096827E060290020E02B0020DD
:102B1000F42B0020082C00201C2C00207800002022
:102B20007C0000204C0000204400002058000020C1
:102B3000680000205400002004ED00E06C0000203C
:102B40004800002074000020500000206400002095
:102B50005C00002060000020C96A884202D3012086
:102B6000F8490860F848006808B9012000E0002032
:102B70000028A9D00CB1FFF7ABFEF448056865B199
:102B800000BFFFF716FF10B10120EE4908606D1E6F
:102B9000002DF6D10020ED490860EA48006838B100
:102BA00001263007EA490860BFF34F8FBFF36F8FEC
:102BB000FEF75AFF304670BD2DE9F04105460F463D
:102BC000E4480688E4480068001DFFF7A5F850B9FE
:102BD000E148006890F82C1001208840DF4909681E
:102BE0008143DE480160701984B2DB48006884804C
:102BF000B44207DAD8480168091DD9480068FFF7D0
:102C00006FF80CE0D4480168091DD6480068FFF74A
:102C100067F8D5480088844201DAD3480480BDE8CB
:102C2000F081D2480068401CD0490860704770B5F8
:102C300004460025002C08DDFFF7F3FF00212046A5
:102C4000FFF7BAFFFFF72DFF05463DB94FF0805063
:102C5000BF490860BFF34F8FBFF36F8F70BD2DE981
:102C6000F04106463746BC480068874201D100243F
:102C700015E0FEF7EAFE7D69FEF7F6FEB94800684A
:102C8000854203D0B6480068854201D1022406E09F
:102C9000B748854200D00DB9042400E00124204645
:102CA000BDE8F08170B523E0FFF7BBFFB0480068D6
:102CB00008B9012000E000200546FFF7F2FEBDB98B
:102CC000FEF7C3FEAA48C068C468201DFFF724F8B9
:102CD000A8480068401EA7490860A7480068401E31
:102CE000A5490860FEF7C0FE2046FFF706FE00BFBC
:102CF000A14800680028D7D170BD00BFFFF7D2FF00
:102D00009E4800680128F9D94FF08050904908602A
:102D1000BFF34F8FBFF36F8FF0E71CB598480021CA
:102D20000B468222CDE9001096A19848FFF7A0FD3E
:102D30000446012C02D100F0EEFE0446012C14D111
:102D400000BF502080F31188BFF34F8FBFF36F8F08
:102D500000BF4FF6FF708449088001208C4908604D
:102D600000207C490880FEF75AFE1CBD10B500BF4C
:102D7000502080F31188BFF34F8FBFF36F8F00BFD8
:102D8000002083490860FEF75FFE10BD10B5FEF716
:102D90005CFE70480488FEF767FE204610BD10B543
:102DA00000BF5023EFF3118083F31188BFF34F8FDF
:102DB000BFF36F8F00BF014666480288084680F364
:102DC000118800BF104610BD6A4800687047014670
:102DD00011B96148006800E00846024602F134007B
:102DE00070470246002101E0521C491C1078A528BA
:102DF000FAD0890888B270472DE9F04107460C46A1
:102E000090461E4617B95448006800E0384605460B
:102E1000256005F134006060E86A2061286BE0619C
:102E2000686CA060E86C60610020A061052E01D094
:102E3000267303E03846FFF712FF2073B8F1000F46
:102E400004D0286BFFF7CDFF208401E00020208410
:102E5000BDE8F0812DE9F04707460C469046002674
:102E6000206848B3204641684968416000F1080184
:102E700042688A4202D14168496841604168D1F89C
:102E80000C9000BF204641684968416000F108018C
:102E900042688A4202D14168496841604168CD6810
:102EA00006EBC60007EB8001434601222846FFF7E8
:102EB000A3FF761C4D45E5D13046BDE8F0872DE9EE
:102EC000F04105468846164600242027FFF7A9FE54
:102ED00028480068804530D300BF7F1E07EB87027B
:102EE000264B03EB820104EBC40205EB82000122B6
:102EF000FFF7B0FF0444002FEFD104EBC40105EB52
:102F00008100022217490968FFF7A4FF044404EB7B
:102F1000C40105EB8100022211490968FFF79AFFFD
:102F2000044404EBC40105EB810004221049FFF7BF
:102F300091FF04440EB100203060FFF7B2FD20463F
:102F4000BDE8F08160000020082C00205C0000201B
:102F500004ED00E050000020440000205400002058
:102F60007C000020780000206C000020740000200D
:102F70001C2C00204C00002048000020602900206C
:102F80007000002049444C4500000000FB2C000864
:102F900058000020FE48006818B10120FD49086073
:102FA0001DE00020FB490860FB480068B0FA80F093
:102FB000C0F11F0101EB8102F84B03EB8200426874
:102FC0005268426000F108024368934202D14268AD
:102FD000526842604268D268F14B1A6000BF704785
:102FE00070B505460C46EE48016818312846FEF7D4
:102FF00077FE01212046FFF7DFFD70BD70B5064664
:103000000C46154644F40040E54909680883E44845
:10301000016818313046FEF757FE01212846FFF7B8
:10302000CBFD70BD70B506460D461446DC48016800
:1030300018313046FEF748FE0CB14FF6FF752146B9
:103040002846FFF7B9FD70BD70B50646F068C46844
:1030500004F11800FEF760FECD480068A8B9201DF5
:10306000FEF75AFE94F82C1001208840CA490968DE
:103070000843C9490860E16A01EB8101C74A02EBD4
:103080008100211DFEF720FE04E004F11801C5486F
:10309000FEF71AFEC249E06A0968C96A884204D983
:1030A00001250120BB49086000E00025284670BDCD
:1030B0002DE9F04105460F4647F400402880EC68B2
:1030C0002846FEF729FE201DFEF726FE94F82C1058
:1030D00001208840B04909680843AF490860E16AA7
:1030E00001EB8101AD4A02EB8100211DFEF7ECFDF1
:1030F000AB49E06A0968C96A884204D901260120FF
:10310000A449086000E000263046BDE8F081A649E9
:1031100009680160A54909888180704770B5044637
:103120000D46FEF792FCA14802889F492068096875
:10313000884204D0A088904201DC012610E0A088DB
:10314000101A80B22988884209DA2888A188511A81
:10315000401A28802046FFF7DAFF002600E001260B
:10316000FEF782FC304670BD01208A490860704736
:10317000014611B10A46906C00E00020704708B18A
:103180000246916470478649086870478849096813
:1031900009B9012005E07E49096809B9022000E06B
:1031A0000020704770B505462C46002D4BD07C4959
:1031B000E06A0968C96A884245D2208B10F4004F42
:1031C00005D177480068C06AC0F120002083E16A19
:1031D00001EB8101714A02EB81016069884201D1F2
:1031E000012000E0002050B3201DFEF795FD78B9C6
:1031F000E06A00EB8000694951F8200040B994F87A
:103200002C100120884064490968814362480160AC
:1032100063480068C06AE06294F82C10012088407E
:103220005D49096808435C490860E16A01EB810176
:103230005A4A02EB8100211DFEF746FD03E0584883
:103240000068C06AE06270BD70B505462C46002675
:10325000ADB3206D401E2065E16CE06A88422ED03F
:10326000206D60BB201DFEF757FD78B9E06A00EBCA
:1032700080004A4951F8200040B994F82C100120F0
:10328000884045490968814343480160E06CE06239
:10329000E06AC0F12000208394F82C1001208840BF
:1032A0003D49096808433C490860E16A01EB810136
:1032B0003A4A02EB8100211DFEF706FD0126304649
:1032C00070BD70B505460E463146284601F02FFA0E
:1032D000284601F025FA044602E020202855641C07
:1032E0000F2CFAD300202855281970BD7FB505464C
:1032F000002028702F48006803902E49096801EBD0
:10330000C1018800FEF73FFC0446002C68D0002273
:1033100020460399FFF7D3FD03900020029058E068
:10332000029800EBC00004EB8000007B012806D06F
:10333000022806D0032806D0042808D105E052262A
:1033400007E0422605E0532603E0442601E000267C
:1033500000BF00BF029800EBC00004EB8000416892
:103360002846FFF7AEFF0546029800EBC00004EBCD
:1033700080008068029901EBC10104EB8101098C96
:10338000CDE90010029800EBC00004EB800013E0D0
:1033900074000020600000205400002060290020FC
:1033A00044000020082C0020640000205000002071
:1033B000580000204C0000203246F0A10369284646
:1033C00001F058FD284601F0ABF905440298401C75
:1033D0000290DDE902018842A2D32046FEF730FCCC
:1033E0007FBDEA490968088BE8490968C96AC1F1E3
:1033F0002001E64A126811837047E448006830B142
:10340000E249096801F15000096D491C0160DF487B
:103410000068704770B506460D46FEF716FBDB48A0
:103420000068406D90B90120D849096881F85800BA
:10343000002D0BDD01212846FFF7BEFB4FF0805029
:10344000D3490860BFF34F8FBFF36F8FFEF70CFBBC
:10345000FEF7FBFACD480068446D4CB126B1002060
:10346000CA490968486503E0601EC849096848659B
:103470000020C649096881F85800FEF7F5FA204691
:1034800070BD2DE9F0410746884614461D46FEF7FB
:10349000DCFABE48006890F85800022819D0BB49F1
:1034A000096801F15400496DB94301600120B74931
:1034B000096881F85800002D0BDD01212846FFF72F
:1034C0007BFB4FF08050B2490860BFF34F8FBFF3D2
:1034D0006F8FFEF7C9FAFEF7B8FA1CB1AB48006867
:1034E000406D2060A948006890F85800012801D17B
:1034F000002608E0A549096801F15400496D21EA58
:103500000801016001260020A049096881F85800DF
:10351000FEF7AAFA3046BDE8F0812DE9F047814672
:103520000D4616461F464FF0010A4C46FEF78DFA2F
:103530000FB1606D386094F85880022084F858000C
:10354000052E17D2DFE806F01503070B0D00606D9E
:10355000284360650EE0606D401C60650AE06565AB
:1035600008E0B8F1020F01D0656501E04FF0000AF4
:1035700000E000BF00BFB8F1010F22D1201DFEF70F
:10358000CBFB94F82C10012088408249096808433D
:1035900080490860E16A01EB81017F4A02EB81000A
:1035A000211DFEF791FB7949E06A0968C96A8842E2
:1035B00007D94FF0805076490860BFF34F8FBFF3B3
:1035C0006F8FFEF751FA5046BDE8F0872DE9F84FAE
:1035D00083460D4616461F46DDF828A001200090C0
:1035E0005C4600BF5021EFF3118081F31188BFF3D7
:1035F0004F8FBFF36F8F00BF81460FB1606D386092
:1036000094F85880022084F85800052E17D2DFE87D
:1036100006F01503070B0D00606D284360650EE092
:10362000606D401C60650AE0656508E0B8F1020F56
:1036300001D0656501E00020009000E000BF00BF00
:10364000B8F1010F2DD155480068A8B9201DFEF72B
:1036500063FB94F82C10012088404E490968084308
:103660004C490860E16A01EB81014B4A02EB8100A1
:10367000211DFEF729FB04E004F118014848FEF77C
:1036800023FB4249E06A0968C96A884209D9BAF14C
:10369000000F03D00120CAF8000002E001204149D8
:1036A000086000BF89F3118800BF0098BDE8F88F5B
:1036B0002DE9F04105460E462C4600BF5021EFF3A0
:1036C000118081F31188BFF34F8FBFF36F8F00BF5D
:1036D000074694F85880022084F85800606D401C1A
:1036E0006065B8F1010F2AD12C480068A8B9201DE7
:1036F000FEF712FB94F82C10012088402549096838
:10370000084324490860E16A01EB8101224A02EB87
:103710008100211DFEF7D8FA04E004F118012048C9
:10372000FEF7D2FA1949E06A0968C96A884206D9DF
:1037300016B10120306002E001201A49086000BF84
:1037400087F3118800BFBDE8F08170B5054615B953
:103750000E48006800E028460646FEF776F996F81F
:103760005800022804D1002086F85800012400E007
:103770000024FEF779F9204670BD00000925630991
:1037800025750925750925750D0A000044000020DE
:1037900004ED00E0540000206029002074000020A7
:1037A000082C0020600000202DE9F04104460D4661
:1037B00016461F464FF00008A5802461B5420DDC77
:1037C000F01B80B2218B884202DB4FF0010811E030
:1037D000211DF6480068FEF783FA0BE0BE4204DACA
:1037E000BD4202DB4FF0010804E0211DF0480068F3
:1037F000FEF776FA4046BDE8F0812DE9FF47054621
:103800000C4616461F46DDF830804FF00009E948A7
:10381000006818B30094ADF804600295062C15DA20
:10382000FFF7B4FC022808D1002342466946E1486C
:103830000068FEF7B4FB814610E000231A46694693
:10384000DC480068FEF7ABFB814607E000233A4600
:103850006946D8480068FEF76CFD8146484604B0CA
:10386000BDE8F0872DE9F84327E0D1480068C0683B
:103870000588CF480068C068C468201DFEF74CFA70
:103880002046616A8847E069012816D1208B2844C8
:1038900086B2AE4207DDA6802461211DC4480068BF
:1038A000FEF71EFA09E0002003462A460146009072
:1038B0002046FFF7A2FF804600BFBD4800680068B1
:1038C00008B9012000E000200028CED0B8480768E1
:1038D000B6480068B6490860B4480760BDE8F88398
:1038E00070B50446FFF752FA0546B3480088854292
:1038F00004DAFFF7B7FF0120206001E0002020601C
:10390000AD480580284670BDF0B587B05DE00398EE
:10391000002805DA04AED6E90020B168904700BF60
:103920000398002851DB059C606908B9012000E07C
:10393000002010B9201DFEF7EFF902A8FFF7D0FF15
:10394000054603980A283ED2DFE800F00905072A59
:103950002C3906082B2D00BF00BF00BF00BFBDF8EB
:103960001000228B104481B2BDF810302A46204648
:10397000FFF71AFF98B12046616A8847E06901287D
:103980000DD100200090BDF81000218B084482B2B8
:10399000002319462046FFF730FF074600BF13E01B
:1039A00000BF11E000BFBDF810002083208B284429
:1039B00081B22B462A462046FFF7F6FE04E0204659
:1039C000FEF73EF900E000BF00BF00231A4603A93E
:1039D00078480068FEF7D8FB002898D107B0F0BD02
:1039E000F8B505460E4672480068C068C468201DD8
:1039F000FEF792F9E069012812D1208B284481B2A8
:103A00002B4632462046FFF7CFFE48B10020034642
:103A10002A46014600902046FFF7EFFE074600BF0A
:103A20002046616A8847F8BDF8B505460C46FFF7A1
:103A3000F8F86846FFF754FF0646009828BB44B9DB
:103A4000B54206DCFFF72DF831462846FFF7C8FFE0
:103A50001DE03CB155480068006808B9012000E04D
:103A600000200446A81B81B2224652480068FEF797
:103A7000D7FDFFF716F850B94FF080504F49086056
:103A8000BFF34F8FBFF36F8F01E0FFF70AF8F8BD68
:103A90000146474A126812680AB9012200E0002272
:103AA0000A600A6822B9424A1268D268108800E0A7
:103AB0000020704708B500BF6846FFF7E9FF0446DD
:103AC00020460099FFF7B0FFFFF71EFFF4E710B59F
:103AD000FDF7BBFF37480068D0B93948FEF7E4F876
:103AE0003848FEF7E1F836483149086035482F4933
:103AF0000860002210210520FEF776F92D490860A4
:103B00000846006820B130A12A480068FEF762FD2F
:103B1000FDF7AAFF10BD1CB50024FFF7D8FF25480C
:103B2000006858B12A481F2100234FF48272CDE962
:103B3000001028A12948FEF79BFE044620461CBD24
:103B40002DE9F04705460E4617469846DDE90894EC
:103B50005CB1FFF7BCFF25602683E761C4F82080D5
:103B6000C4F82490201DFEF7ACF8BDE8F0872DE9DD
:103B7000FC4705460E4617469846DDF828902C204F
:103B8000FEF701F804463CB143463A463146284622
:103B9000CDE90094FFF7D4FF2046BDE8FC870C4830
:103BA0000068704701460A46108B7047900000205D
:103BB0008C000020800000208800002004ED00E040
:103BC000302C0020442C0020546D72510000000065
:103BD00084000020546D722053766300B53A0008CB
:103BE00001460A469088704701460A4610687047A9
:103BF00070B504462646FDF728FF706908B9012014
:103C000000E0002080F00105FDF72EFF284670BD82
:103C100070B504462646FDF718FF356AFDF724FF08
:103C2000284670BD70B504460D462646FDF70DFFCB
:103C30003562FDF719FF70BD2DE9FF4104460D46C1
:103C400016461F466FF001000090019402950396FE
:103C500000233A46694610480068FEF76AFB804632
:103C6000404604B0BDE8F0812DE9FF4104460D4611
:103C700016461F464FF0FF300090019402950396C0
:103C800000233A46694604480068FEF788F98046F2
:103C9000404604B0BDE8F0818000002070B50446C5
:103CA0000420FCF7EBFB1D4800681D49B0FBF1F553
:103CB0000846B0FBF4F045434FF0E020006940F0C7
:103CC00002004FF0E021086108464561006940F0BC
:103CD0000100086170BD1CB54FF00060114908601B
:103CE0004FF44070FCF77AFB4FF47A70FFF7D6FF81
:103CF0000D48012100238022CDE900100BA10E48C0
:103D0000FEF7B6FDFFF709F800201CBD10B5FFF760
:103D10003DFA012801D0FDF7B5FE10BD00000020DE
:103D200040420F0008ED00E09400002073746172BF
:103D3000745F7461736B00003D3D000810B504466C
:103D400000F061FC00F0B1F81D480068FEF7DEFDF0
:103D500010BD10B504460021204600F06FFE01D2D0
:103D6000204610BD84F00040FBE7F0B5034600227A
:103D70004FF0E0267569134E36685E43124FB6FB6E
:103D8000F7F44FF0E026B16910E04FF0E026B0699B
:103D900088420BD0884202D20E1A324402E02E1A18
:103DA0000E4432440146A24200D300E0EDE700BFDA
:103DB000F0BD10B504462046FEF739FF10BD0000E7
:103DC000940000200000002040420F00704700BF18
:103DD000FEE700BFFEE700BFFEE700BFFEE770475B
:103DE000411E4FF080429185704710B5044608206F
:103DF00030B104280AD008280ED00C2818D111E0C0
:103E000021464FF08040FDF7B7FC12E021464FF00D
:103E10008040FDF7C3FC0CE021464FF08040FDF7E9
:103E2000D7FC06E021464FF08040FDF7EBFC00E0B8
:103E300000BF00BF10BD10B5044601206070002017
:103E40002070607400BF05E0002204F10C010A54E8
:103E5000411CC8B20528F7DB00F068F90421A84826
:103E6000FCF737FC0F20FFF7A4FF0421A448FCF760
:103E70002EFC1E20FFF779FF0320607000F09EF9F2
:103E80000020FFF7B2FF00204FF0804188844FF4FC
:103E9000FA70FFF7A5FF10BD06E09A48FFF7CBFFC9
:103EA0004FF47A70FEF7C3FEF7E71CB500F063F934
:103EB000954802210023C822CDE9001093A195481E
:103EC000FEF7D6FC022000F0B2FB40F6B830FEF759
:103ED000AEFE1CBD2DE9FE4F044606206070207822
:103EE00000285BD1257B94F80D90A67B94F80FA059
:103EF00094F810B005EB090030445044C0B2029071
:103F00000298584546D109EB052000F030FD824A61
:103F1000824BCDE9000100F049FC074600F072FD3C
:103F200060600AEB062000F022FD7B4A7B4BCDE966
:103F3000000100F03BFC074600F064FDA06000209B
:103F400000F075FB7648007820B96E49886800F06B
:103F50006BFB07E072480078012803D16949486883
:103F600000F062FB6F480078401CC0B26D490870D9
:103F700005280FDD002008706948007818B9012075
:103F80006749087006E066480078012802D10020E1
:103F9000634908700020644908700AE062480078AC
:103FA000401CC0B260490870032802DD022000F006
:103FB0003EFB00F0BBF8BDE8FE8F2DE9F041514C0F
:103FC00001218807FDF7EFFC50B101218807FDF7BB
:103FD000FBFC01202070002060702046FFF77AFF74
:103FE0000821C806FDF7DFFC00287DD00821C8069F
:103FF000FDF7EAFC00204FF08041888460780328B8
:1040000004D0042814D0052875D11FE004213C48B1
:10401000FCF743FB01280AD1042060700220FFF75F
:10402000E4FE6920FFF7DCFE012000F000FB63E006
:1040300004213348FCF731FB38B9052060700220B9
:10404000FFF7D3FE9620FFF7CBFE55E004212C4866
:10405000FCF723FB00284DD10027082030B10428AD
:104060000AD008280ED00C2818D111E04FF080405B
:10407000FDF77AFC074612E04FF08040FDF777FC31
:1040800007460CE04FF08040FDF774FC074606E061
:104090004FF08040FDF771FC074600E000BF00BF15
:1040A000607CC11700EB5171CD10607CC11700EB33
:1040B0005171C910A0EBC101CEB2762F0BDD04F116
:1040C0000C00405DC6F10702012191400843C1B2D6
:1040D00004F10C004155607C401CC0B2607428287B
:1040E00007DB0020207001E007E004E02046FFF736
:1040F000F1FE00BF00E000BF00BFBDE8F08100009E
:1041000000080140582C0020A0000020616D3233CF
:1041100032300000993E00089A9999999999B93FCF
:104120009B0000209A0000209C00002008B5002180
:104130004FF08040FDF76EF9002201218807FDF75E
:1041400084F900220821C806FDF77FF96846FCF7CC
:104150009CFA0420ADF8000003208DF80200102026
:104160008DF8030069464D48FCF706FA04214B48D8
:10417000FCF7ADFA08BD08B56846FCF786FA0121E0
:104180000420FCF7AFFC10208DF8030003208DF80D
:1041900002004FF48060ADF8000069463F48FCF72C
:1041A000EBF94FF480613D48FCF793FA01210420BC
:1041B000FCF798FCFFF7BAFF002008BD00B589B0F6
:1041C00008A8FCF762FA05A8FDF7F4F802A8FDF7C5
:1041D00004F90420ADF8200048208DF8230008A938
:1041E0002E48FCF7C9F901210846FCF788FC2C4849
:1041F00000682C49B0FBF1F0401E80B2ADF814000D
:104200000020ADF81600ADF81A0042F20F70ADF8BC
:1042100018000020ADF81A0005A94FF08040FCF707
:104220009DFD0820ADF808000A20ADF80A00012025
:10423000ADF80C000020ADF80E000420ADF8100021
:1042400002A90007FDF71DF81C208DF804000120CD
:104250008DF805008DF806008DF8070001A8FCF721
:10426000C2F801218807FDF7AFFB0821C806FDF75A
:10427000ABFB012211469007FDF7E7F80122082168
:10428000C806FDF7E2F800204FF080418884012144
:104290008807FDF7BFF809B000BD00000008014025
:1042A0000000002040420F0070B50446082517E0CA
:1042B00014F0800F04D04021DE48FCF708FA03E038
:1042C0004021DC48FCF705FA6006040E1021D948AD
:1042D000FCF7FFF91021D748FCF7F9F9681EC5B2C1
:1042E000012DE5DA70BD88B00120D34908710320A3
:1042F0004871002008608346002683E1CE4880791B
:1043000018B1CD488079012826D1CB490868FFF73C
:1043100020FD0446C94900F091FB1ED8C6484479E7
:1043200018E0BF20FFF7C0FF611E01228A40D0B213
:10433000FFF7BAFF2021BF48FCF7CBF90120FEF7B9
:1043400076FC2021BB48FCF7C2F90120FEF76FFC88
:10435000601EC4B2002CE4DC7AE0B7480068069026
:10436000002406E0B649069800F0EAF90690601CC1
:10437000C4B2B1480079A042F4DC069800F015FB05
:104380001FFA80F94FF0000AAB4844795DE02046FF
:1043900000F0FEFA02460B46CDE904010020A949CF
:1043A00000F0E6FE074600F014FB80B299FBF0F146
:1043B00000FB11901FFA80F9601E00F0D8FA024647
:1043C0000B46CDE9000100209E4900F0D1FECDE969
:1043D0000201484600F0DCFA0746DDE9022300F05E
:1043E00057FACDE9040100F0F4FAC5B2BAF1000FB2
:1043F00007D135B990480079401CA04201DAFF2569
:104400000AE04FF0010A9048455D8B480079401C56
:10441000A04201D105F07F052846FFF745FF611E48
:1044200001228A40D0B2FFF73FFF20218148FCF7EC
:1044300050F90120FEF7FBFB20217E48FCF747F9ED
:104440000120FEF7F4FB601EC4B2002C9FDC00BF0D
:104450007948807920B1012803D0022800D112E0E8
:10446000CFE07F20FFF720FF0820FFF71DFF20216E
:104470007048FCF72EF90120FEF7D9FB20216D488A
:10448000FCF725F9BDE00C2E11D2DFE806F006118D
:104490001C28333E4A55606C778201208DF8170046
:1044A0008DF816008DF8150000208DF814007CE0C2
:1044B00000208DF8170001208DF816008DF81500EA
:1044C0008DF8140071E000208DF817008DF81600AB
:1044D00001208DF8150003208DF8140065E0002000
:1044E0008DF817008DF816008DF8150007208DF84F
:1044F00014005AE000208DF817008DF816008DF892
:1045000015000E208DF814004FE000208DF81700E4
:104510008DF8160008208DF815000C208DF8140079
:1045200043E000208DF8170008208DF816008DF864
:1045300015008DF8140038E008208DF817008DF86C
:1045400016008DF8150000208DF814002DE01820BD
:104550008DF8170008208DF8160000208DF8150042
:104560008DF8140021E038208DF8170000208DF818
:1045700016008DF815008DF8140016E031208DF826
:10458000170000208DF816008DF815008DF8140026
:104590000BE011208DF8170001208DF81600002087
:1045A0008DF815008DF8140000BF00BF002417E03F
:1045B00005A9095DC943C8B2FFF776FE0121A140F4
:1045C000C8B2FFF771FE20211A48FCF782F80120DB
:1045D000FEF72DFB20211748FCF779F8601CC4B2C8
:1045E000042CE5DB0BF1010080B28346142807DBC5
:1045F0004FF0000B701CC0B206460B2800DD0026F1
:1046000000BF00BF7AE61CB500F026F80F48052170
:104610000023C822CDE900100DA10E48FEF728F9AD
:104620000A20FEF704FB1CBD0349086070470249DD
:104630008871704700080140B00000200000C842A7
:104640000000204100002440A4000020B800002009
:104650004C454400E742000808B501210846FCF734
:1046600041FA01211A48FCF756F801210420FCF711
:1046700039FA1020ADF800008DF8030003208DF802
:10468000020069461348FBF777FF01210420FCF77D
:1046900029FA4020ADF8000010208DF80300032017
:1046A0008DF8020069460B48FBF766FF01210420E4
:1046B000FCF718FA2020ADF8000010208DF8030058
:1046C00003208DF8020069460248FBF755FF08BD3C
:1046D000000230000008014040EA01039B0703D0BC
:1046E00009E008C9121F08C0042AFAD203E011F831
:1046F000013B00F8013B521EF9D27047D2B201E0F3
:1047000000F8012B491EFBD270470022F6E710B5D6
:1047100013460A4604461946FFF7F0FF204610BD2F
:10472000421C10F8011B0029FBD1801A7047034678
:1047300011F8012B00F8012B002AF9D11846704717
:1047400080EA010210B502F00043400026D04A0082
:1047500023D04FEA106101EB1261C0F35600C2F39F
:10476000560240F4000042F40002A0FB0220A1F136
:104770007F014FEA0040140401D000F1010050EA2B
:10478000124001D44000491EC2B20C0604EBD01006
:10479000401C4008802A02D003E0002010BD20F019
:1047A0000100002900DA0020184310BD2DE9FE4F5A
:1047B00081EA030404F0004421F0004100944FF02A
:1047C000000B23F0004350EA010402D052EA030434
:1047D00004D10020014603B0BDE8F08FC3F30A54B2
:1047E000C1F30A552C44A4F2F3340194A0FB025403
:1047F000C1F3130141F48011C3F3130343F4801395
:1048000001FB024400FB034E840A970A44EA8154E8
:1048100047EA8357A4FB076802958D0A05FB0785C5
:104820004FEA932C04FB0C542705029D4FEA0658CF
:1048300047EA1637B5EB08056EEB070C870E920EAC
:1048400047EA811742EA8312A7FB0201B6EB0B018C
:1048500064EB00042B0D43EA0C335E1844EB1C5050
:10486000DA465146E7FB0201C5F313044FEA0B3366
:1048700043EA14534FEA0432019C43EA0603A4F1CD
:104880000C040294009CCDE900B400F04AF9A2E7C0
:104890002DE9F04D81EA030404F0004B21F00045BE
:1048A00014464FF0000A23F0004150EA050220D0E0
:1048B00054EA01021DD0C5F30A570246C5F313039B
:1048C000C1F31300C1F30A5640F4801543F480137A
:1048D000A7EB0608101BD64608F2FD3873EB05005F
:1048E00002D308F1010801E092185B41B8F1000F12
:1048F00003DA00200146BDE8F08D00204FF480115E
:10490000064684460EE0171B73EB050705D3121B02
:1049100063EB050306434CEA010C49084FEA3000FB
:1049200092185B4150EA0107EDD152EA030012D020
:1049300082EA040083EA0501084303D100224FF014
:10494000004308E0101BAB4102D20122002302E029
:104950006FF0010253101AEB06004CEB085110EBFC
:104960000A0041EB0B01BDE8F04D00F0CDB80EB5EB
:10497000C10F80EAE0700844CA07002140F23343C7
:104980008DE80E000A460B4600F0CBF803B000BDE0
:104990000EB540F2334102910021CDE900110A46E3
:1049A0000B4600F0BEF803B000BD20F00040C10D82
:1049B000C0F3160040F400007F2901DA00207047A0
:1049C000962903DCC1F19601C840704796398840AA
:1049D0007047C1F30A5210B5C1F3130140F2FF331F
:1049E00041F480119A4201DA002010BD40F23343B5
:1049F0009A42A2F2334203DC524200F03FF810BD6B
:104A0000904010BD01F0004330B421F0004150EA65
:104A1000010206D00A0DA2F56072C1F31301002A4B
:104A200002DC30BC00207047440F44EAC104C100DE
:104A3000E01830BC00EBC25000F030B8002801DBB9
:104A4000C0F10040002901DBC1F1004188427047FC
:104A500030B50B46014600202022012409E021FA4E
:104A600002F59D4205D303FA02F5491B04FA02F54B
:104A70002844151EA2F10102F1DC30BD202A04DB1E
:104A8000203A21FA02F00021704721FA02F3D040C7
:104A9000C2F1200291400843194670470029A8BF7F
:104AA0007047401C490008BF20F00100704710B457
:104AB000B0FA80FC00FA0CF050EA010404BF10BC0C
:104AC000704749B1CCF1200421FA04F411FA0CF139
:104AD00018BF012121430843A3EB0C01CB1D0106A4
:104AE000000A002BBEBF002010BC704700EBC35073
:104AF00010440029A4BF10BC7047401C490008BFE7
:104B000020F0010010BC704710B5002B08DA401CE3
:104B100041F1000192185B411A4301D120F00100DC
:104B200010BD2DE9F04D92469B4611B1B1FA81F2CC
:104B300002E0B0FA80F22032904600F029F90446F3
:104B40000F4640EA0A0041EA0B0153465A46084321
:104B500003D120463946BDE8F08D114653EA0100E5
:104B600015D0C8F140025046FFF788FF05460E46B3
:104B700050465946424600F00BF9084301D0012047
:104B800000E00020054346EAE0762C4337430A98CC
:104B90004FEA4453A0EB08004FEAD4240A304FF008
:104BA000000244EA47544FEAD72502D500200146C7
:104BB000D1E7010510196941DDE90845001969418E
:104BC000BDE8F04DA0E72DE9FE4F804681EA0300E5
:104BD000C00F0C46009021F0004123F00045B8EBD7
:104BE0000200A94105D24046214690461C460B468C
:104BF000024623F00040104304D14046214603B052
:104C0000BDE8F08F270DC7F30A00C3F30A510290E5
:104C1000401A0190402866DAC3F3130040F4801B69
:104C20000098924620B10023D2EB030A63EB0B0BF2
:104C300001985946C0F14002504600F0A9F80646D6
:104C40000D4650465946019A00F0B1F810EB0800A5
:104C50006141002487EA115284EAE7731A433BD08A
:104C6000009A3AB3019A012A4FEA075210DC001B5E
:104C700061EB02014FF0004202EA0752CDE9004227
:104C8000001C41F5801132462B46FFF74AFFB6E77C
:104C9000001B61EB0201001C41F5801300185B4111
:104CA0002018A2F5001747EB030140EAD570B619AA
:104CB0006D4111E06D084FEA360645EAC0754FEACE
:104CC0000752001B61EB0201001C41F580114908ED
:104CD0004FEA30000019514132462B4603B0BDE87F
:104CE000F04FFFF711BF0098012240000023D0EBE6
:104CF000020263EBE073009821464FEAE074B8EBE0
:104D0000000061EB0401E9E783F000435BE781F019
:104D1000004158E770B521F0004303430CD0C1F3C4
:104D20000A550024D5EB040564EB0403D617AD1A2D
:104D3000B34102DB0020014670BD201841EB025157
:104D400070BD000030B5002904DB4FF00044404244
:104D500064EB0101002B04DB4FF00044524264EB92
:104D60000303994208BF904230BD0000064C074D36
:104D700006E0E06840F0010394E80700984710342B
:104D8000AC42F6D3FBF7D8F9305C0008505C000861
:104D9000202A04DB203A00FA02F1002070479140FB
:104DA000C2F1200320FA03F3194390407047202AF0
:104DB00006DBCB17203A41FA02F043EAE07306E043
:104DC00041FA02F3D040C2F1200291400843194653
:104DD00070472DE9F04D00231A461B1A8A4103DB68
:104DE00000200146BDE8F08DC1F30A52C1F3130162
:104DF00041F480154FF0000BD10702D100186D412E
:104E0000521E0027044640F2FF11384601EB620AA9
:104E10003E468046024600204FF48011FFF72EFEEA
:104E2000C2197141BB1846EB0100B4EB030C75EBE2
:104E3000000C04D3E41A65EB000517460E4624194E
:104E400008F101006D4180463428E3DDF91946EB95
:104E50000600091BA84103D24FF0FF32134601E0C0
:104E6000002213461BEB070046EB0A51BDE8F04D4C
:104E7000FFF74ABE0FB4084B10B504A902AA039865
:104E800000F094F8044602A9002000F06BF92046D7
:104E900010BC5DF814FB000065510008490050EAA1
:104EA000C12018BF04204A0D18BF40F0010040F295
:104EB000FF72B2EB515F08BF40F00200012808BF4B
:104EC000052070472DE9F0414F1E00EBC701044655
:104ED000D1E9000115461E4637F006020DD02A46DC
:104EE0003346FFF763FC7F1E04EBC703D3E90023BF
:104EF000FFF769FE37F00602F1D1022F25D0042F0B
:104F000013D0062F18BFBDE8F0812A463346FFF7BD
:104F10004DFCD4E90A23FFF756FE2A463346FFF735
:104F200045FCD4E90823FFF74EFE2A463346FFF737
:104F30003DFCD4E90623FFF746FE2A463346FFF739
:104F400035FCD4E90423FFF73EFE2A463346FFF73B
:104F50002DFCD4E90223FFF736FE2A463346FFF73D
:104F600025FCD4E90023BDE8F041FFF72CBE00008A
:104F7000024A00201107FFF7CDBE000001FDFFFF30
:104F800002E008C8121F08C1002AFAD17047704712
:104F9000002001E001C1121F002AFBD17047000070
:104FA0000149086070470000BC0000202DE9FF4F58
:104FB0008BB09A460F4605460026C9E0252837D112
:104FC00000246D1C6649A04601222B78203B02FA82
:104FD00003F0084202D004436D1CF6E728782E281F
:104FE00017D115F8010F44F004042A280ED06FF0F1
:104FF0002F022878A0F1300109290AD808EB88018E
:1050000002EB410100EB01086D1CF2E757F8048B3D
:105010006D1C287869283FD006DC002871D06328F1
:105020000CD0642804D137E0732811D075284ED0F5
:1050300052460D99904706F1010688E017F8040BD7
:105040008DF8000000208DF80100E946012003E002
:1050500057F8049B4FF0FF3061074FF0000401D474
:105060000AE0641C44450DDA8442FADB19F80410A6
:105070000029F6D106E0641C8442FCDB19F8041018
:105080000029F8D1264404E019F8010B52460D9985
:105090009047641EF8D25AE001CF4FF00A0B002867
:1050A00004DAC0F100004FF02D0102E0210504D523
:1050B0002B218DF82410012103E0E10705D02021E8
:1050C000F7E70DF1200908910CE00021F9E701CF85
:1050D0004FF00A0BF9E75946FFF7BAFC01F130022D
:1050E00009F8012D0028F6D1ADEB090000F1200BE5
:1050F000600701D44FF00108D84503DDA8EB0B0091
:1051000001E029E000208046002406E009A852467C
:10511000005D0D999047761C641C08988442F5DB6D
:1051200004E0302052460D999047761CB8F10001FA
:10513000A8F10108F5DC05E019F8010B52460D99BC
:105140009047761CBBF10001ABF1010BF4DC6D1C48
:10515000287800287FF432AF0FB03046BDE8F08FDA
:10516000092801000A68531C0B601070704700008A
:105170002DE9F04D16460F460546020094B01C4638
:1051800021F0004123F0004014BF4FF0010C4FF01C
:10519000000C0CEB470CFE4B0CEB03084FEA630CC6
:1051A000E0452DD35FEA060818BF4FF0010808EB71
:1051B00044089844F74B984522D3F74B50EA060C25
:1051C00002D09F4205D14AB914B000201946BDE86B
:1051D000F08D002A08BF4FF0000C01D04FF0010CF9
:1051E0000CEB470313F5001F0AD8002E14BF4FF035
:1051F000010C4FF0000C0CEB440313F5001F08D911
:1052000014B03246234628463946BDE8F04DFFF734
:10521000DABCDFF888B34FF0000A002FB8BF58455A
:1052200023DADF4B9842A8BF4FF0020A1DDADA4BAF
:1052300083421ADCDB4B03EB2053142B08DDC3F154
:10524000340C26FA0CF303FA0CFCB4450DD108E03B
:105250005EB9C3F1140C20FA0CF303FA0CFC84457C
:1052600003D103F00103C3F1020A51EA020321D181
:10527000002C1FDA002F18BFBAF1020F02D0BAF1CA
:10528000010F0BD00220FFF78BFE14B00022BDE807
:10529000F04D13461046C049FFF7FABA0220FFF757
:1052A0007FFE14B02A463B46BDE8F04D0020BA49C7
:1052B000FFF7EEBA33006DD1584525D107F1804094
:1052C00010F5801001BF002A0020B34914B008BFB8
:1052D000BDE8F08DB048884207DC002CA1BF18461D
:1052E000214614B0BDE8F08D07E0002CBFBF184682
:1052F00084F0004114B0BDE8F08DAB497944D1E9A8
:10530000000114B0BDE8F08DDFF88CC2604526D1F5
:10531000002C1FDA19B1594513D1DAB90AE0002A75
:1053200040F0DA829D4A394614B0002062F31E0133
:10533000BDE8F08D0020394614B060F31E01BDE8D1
:10534000F08D07DA14B03B46BDE8F04D0020614611
:10535000FFF79EBA14B010463946BDE8F08D5945A6
:1053600018DAB4F1804F0DD0A4F10053B3F1FF531C
:1053700010D13B1E0EDB14B01046BDE8F04D1946AF
:1053800000F0E6BB3B4614B01046BDE8F04D1946B0
:10539000FFF70CBA27F00043A2BBE1B1594538D161
:1053A000002F06DD002CA1BF0020594614B0BDE837
:1053B000F08D002F01DD002C1FDB002F16DA002CF2
:1053C00014DBBAF1010F4FF0000014BF73497749A5
:1053D00014B0BDE8F08DBAF1020F18BF002F0CD049
:1053E000BAF1010F09D1002F07DA0CE0002FB8BF86
:1053F000002C0EDABAF1010F05D0002014B00146DE
:10540000BDE8F08D05E014B000204FF00041BDE88C
:10541000F08D4FF0010C0CEBE7720D9252EA0A028C
:105420000BD0634A90427DDD624B634A984216DDA1
:105430008A420EDB002C1CDB2CE00120FFF7B0FDC4
:1054400014B00022BDE8F04D134610461146FFF798
:105450001FBA5148884202DC002C0ADC1AE0914253
:1054600002DA002C16DA04E04B4B99421EDD002CC8
:1054700010DD0220FFF794FD40F2013200204FF0D2
:10548000E041FFF747FC454A14B061F31E021146A4
:10549000BDE8F08D0220FFF783FDFFF769FD3E4A6E
:1054A00014B061F31E021146BDE8F08D00222846BB
:1054B0003946FFF729FC054688466FF00102FFF7E1
:1054C00029FC4FF055323D4BFFF721FC2A4643465D
:1054D000FFF76CF900223A4BFFF719FC07468B46A1
:1054E0002A46434610461946FFF760F93A465B469E
:1054F000FFF75CF909910C904FF0C042314B284600
:105500004146FFF753F907468B462F4A2D4B099921
:105510000C98FFF74BF9CDE901102C4A2C4B28468B
:10552000414600E019E0FFF741F9DDE90132FFF7FC
:10553000EBFB3A465B4605910890FFF744FB0025DC
:1055400088463A465B462846FFF7DEFB059B089AED
:10555000FFF7DDFB024600F076B90020B1F5801FB1
:1055600007DA352228461946FFF7D4FB05466FF0C7
:10557000340000EB2150A0F2FF300190C1F3130082
:1055800040F07F6141F0405102911249884223E08E
:10559000FFFF1F00FFFF0F000000F03F0000F07F43
:1055A0000000404301FCFFFF280900000000F0FF5D
:1055B0000000E0410000F043FFFFEF3F5555D53FAD
:1055C0000000E03F4715F73FFE822B6544DF5DF8A2
:1055D0000BAE543E8E980300D8BF4FF0000B0EDD8B
:1055E000FE498142C8BF4FF0010B08DC01984FF023
:1055F000000B401C01900298A0F580100290F84822
:105600000299784400EBCB000B911090D0E9002375
:105610002846FFF779FB009010980791D0E9002306
:1056200028460B99FFF7CFFA02460B460020ED49BA
:10563000FFF72EF905910B4602460890079900984E
:10564000FFF7B4F80690E8488846002778440299A6
:1056500000680E904FF0005040EA610000EB8B4074
:1056600000F5002110980291D0E900230E98FFF771
:105670004BFB2A460B9BFFF74AFB3A464346FFF794
:1056800095F805460B9138464146029B0E9AFFF766
:105690008DF8079B009AFFF73AFB2A460B9BFFF712
:1056A00033FB059B089AFFF781F80B911090069A3F
:1056B000434610461946FFF779F805460246CB489F
:1056C0000B46009106217844FFF7FCFB009B2A461D
:1056D0000291089010461946FFF768F8029B089A55
:1056E000FFF764F805460591434638461946069A81
:1056F000FFF769FA0B9B109AFFF758F82A46059BAB
:10570000FFF761FA3A46434605910890104619465C
:10571000FFF74CF80022B64B00910C90FFF753FABC
:10572000059B089AFFF74FFA0D463A46B04B3846AC
:10573000FFF7EAFA009B0C9AFFF7E6FA059B089A36
:10574000FFF7E5FA11913A460C902B461046414678
:10575000FFF72CF8079100904346069A11990C9890
:10576000FFF724F8804603912B463A460B99109890
:10577000FFF71CF84246039BFFF725FA0591804688
:105780000B46024607990098FFF71DFA00200F46C6
:105790000546079B009AFFF7B7FA4246059BFFF7BD
:1057A000B6FA804609914FF06042924B284639463E
:1057B000FEF7FCFF009102908F4A8E4B40460999FC
:1057C000FEF7F4FF804603918C4A8D4B28463946FC
:1057D000FEF7ECFF4246039BFFF7F5F9894A7A444E
:1057E00002EBCB03D3E90023FFF7EDF90690039119
:1057F0000198FFF7BCF80746DDE902030591069A18
:105800000099FFF7E0F9804A7A4402EBCB0BDBE921
:105810000023FFF7D8F93A46059BFFF7D4F9002596
:1058200088463A462846059BFFF76EFADBE90023D7
:10583000FFF76AFA009B029AFFF766FA039B069A43
:10584000FFF765FA0246002006900D98654FAAF111
:105850000103184301D16D4F069000200B460090C4
:1058600030462146FEF7A2FF82468B46234630464D
:105870001946009AFFF748FA2A464346FEF796FF74
:1058800052465B46FFF79FF906468A462A4643463C
:1058900021460098FEF78AFF04460D4632465346DD
:1058A000FFF791F95A4A8B46914226DBABEB020394
:1058B00053EA000210D122462B46FFF725FA804614
:1058C0000591544A544B30465146FFF77CF9424605
:1058D000059BFFF737FA30D20220FFF761FB40F259
:1058E000013200204FF0E041FFF714FA0A46394632
:1058F00014B062F31E01BDE8F08D484B2BF000425E
:105900009A421AD3464A0BEB020353EA000208D12B
:1059100022462B46FFF7F8F932465346FFF712FAB4
:105920000BD80220FFF73CFBFFF722FB0A46394663
:1059300014B062F31E01BDE8F08D2BF00040394930
:10594000394A01EB20514FF00008824223DA481C0B
:105950004FF4801121FA00F05844C0F30A51334A41
:10596000A1F2FF317A44324B1268CB4020EA0303A4
:10597000C0F3130040F4801CC1F114002CFA00F8AD
:10598000BBF1000FB8BFC8F1000820462946FFF759
:10599000BBF904460D4622462B4630465146FFF7DA
:1059A00012F94FF0000B5A46224B58460591FEF76C
:1059B000FDFE00900791204A204B58460599FEF7BE
:1059C000F5FE0491029022462B4658460599FFF7B2
:1059D0009BF932465346FFF79AF931E07AB60B004D
:1059E0009A0500000000F03FD80500000605000001
:1059F0000000084009C7EE3FFD033ADCF5015B14E7
:105A0000E02F3EBEDE030000A40300000000F0BF54
:105A100000009040FE822B654715973C00CC9040DB
:105A200000346F3F01FCFFFF0000E03FC0020000B8
:105A3000FFFF0F00432EE63F396CA80C615C20BECF
:105A40003F4A404BFEF7B2FE049B029AFFF7BBF8B9
:105A500006468A46079B009AFFF7B5F804460D46AE
:105A6000079B009AFFF750F932465346FFF74FF96C
:105A7000064622462B46099110461946FEF796FE29
:105A80008346024630488A460B4605217844FFF794
:105A900019FA5A465346FEF789FE22462B46FFF76F
:105AA00036F982468B46324620462946099BFEF748
:105AB0007DFE3246099BFFF786F80591089000228B
:105AC0004FF0804350465946FFF71EF906460091B5
:105AD00052465B4620462946FEF768FE3246009B4A
